:020000040800F2
:1000000038070020A9010008652A0008112300080C
:100010005529000831070008CD3500080000000010
:10002000000000000000000000000000752E000825
:100030003307000800000000292E0008412F0008A7
:10004000C3010008C3010008C3010008C301000880
:10005000C3010008C3010008C3010008C301000870
:10006000C3010008C3010008C3010008C301000860
:10007000C3010008C3010008C3010008C301000850
:10008000C3010008C3010008C3010008000000000C
:10009000000000000000000000000000C301000894
:1000A000ED2F000805300008C3010008C301000857
:1000B000C3010008C3010008C3010008C301000810
:1000C000C3010008C3010008C3010008C301000800
:1000D000C3010008A9350008B5350008000000007C
:1000E00035070008C3010008C30100080000000034
:1000F000000000000000000000000000C301000834
:1001000000000000C3010008C3010008C30100088B
:1001100000000000000000000000000000000000DF
:10012000C3010008C3010008C3010008C30100089F
:10013000C3010008000000000000000000000000F3
:10014000000000000000000000000000C3010008E3
:10015000C3010008C3010008C3010008C13500083D
:10016000C3010008C30100080000000000000000F7
:10017000000000000000000000000000000000007F
:1001800000000000C30100080000000000000000A3
:10019000C3010008DFF80CD000F0B8FA00480047AF
:1001A0009D3600083807002006488047064800476B
:1001B000FEE7FEE7FEE7FEE7FEE7FEE7FEE7FEE717
:1001C000FEE7FEE7DD2F0008950100082DE9F05F4E
:1001D0000546002092469B468846064681464024B6
:1001E0001BE0284641464746224600F0DFF95346C9
:1001F0005A46C01A914110D311461846224600F0C3
:10020000C6F92D1A67EB01084F462246012000214E
:1002100000F0BDF917EB00094E41201EA4F10104C6
:10022000DFDC484631462A464346BDE8F09FD2B25D
:1002300001E000F8012B491EFBD270470022F6E7CF
:1002400010B513460A4604461946FFF7F0FF20464C
:1002500010BD2DE9FE4F804681EA0300C00F0C4619
:10026000009021F0004123F00045B8EB0200A941C5
:1002700005D24046214690461C460B46024623F0D6
:100280000040104347D0270DC7F30A00C3F30A51BB
:100290000290401A019040286BDAC3F3130040F437
:1002A000801B0098924620B10023D2EB030A63EB37
:1002B0000B0B01985946C0F14002504600F067F917
:1002C00006460D4650465946019A00F07FF910EB5C
:1002D00008006141002487EA115284EAE7731A4357
:1002E00040D0009A62B3019A012A4FEA075215DC06
:1002F000001B61EB02014FF0004202EA0752CDE918
:100300000042001C41F5801132462B4600F07FF977
:1003100003B0BDE8F08F40462146F9E7001B61EBD2
:100320000201001C41F5801300185B412018A2F562
:10033000001747EB030140EAD570B6196D4111E093
:100340006D084FEA360645EAC0754FEA0752001BB2
:1003500061EB0201001C41F5801149084FEA3000B1
:100360000019514132462B4603B0BDE8F04F00F072
:100370003FB90098012240000023D0EB020263EB5A
:10038000E073009821464FEAE074B8EB000061EB9F
:100390000401E9E783F000435BE781F0004158E79F
:1003A0002DE9FE4F81EA030404F0004421F00041EE
:1003B00000944FF0000B23F0004350EA01045ED09C
:1003C00052EA03045BD0C3F30A54C1F30A552C4428
:1003D000A4F2F3340194A0FB0254C1F3130141F4DD
:1003E0008011C3F3130343F4801301FB024400FBA9
:1003F000034E840A970A44EA815447EA8357A4FBD0
:10040000076802958D0A05FB07854FEA932C04FBCC
:100410000C542705029D4FEA065847EA1637B5EBFC
:1004200008056EEB070C870E920E47EA811742EA29
:100430008312A7FB0201B6EB0B0164EB00042B0D4A
:1004400043EA0C335E1844EB1C50DA465146E7FB96
:100450000201C5F313044FEA0B3343EA14534FEA86
:100460000432019C43EA0603A4F10C040294009CAC
:10047000CDE900B400F0CBF803B0BDE8F08F002068
:100480000146F9E72DE9F04D81EA030404F0004B41
:1004900021F0004514464FF0000A23F0004150EAD5
:1004A000050220D054EA01021DD0C5F30A570246C6
:1004B000C5F31303C1F31300C1F30A5640F48015CA
:1004C00043F48013A7EB0608101BD64608F2FD384C
:1004D00073EB050002D308F1010801E092185B41BB
:1004E000B8F1000F03DA00200146BDE8F08D0020CE
:1004F0004FF48011064684460EE0171B73EB050788
:1005000005D3121B63EB050306434CEA010C4908B3
:100510004FEA300092185B4150EA0107EDD152EAF0
:10052000030012D082EA040083EA0501084305D0E3
:10053000101BAB4106D20122002306E000224FF03F
:10054000004302E06FF0010253101AEB06004CEB7F
:10055000085110EB0A0041EB0B01BDE8F04D00F033
:1005600047B830B50B46014600202022012409E09F
:1005700021FA02F59D4205D303FA02F5491B04FA5C
:1005800002F52844151EA2F10102F1DC30BD202A3B
:1005900004DB203A00FA02F1002070479140C2F1DA
:1005A000200320FA03F3194390407047202A04DB0C
:1005B000203A21FA02F00021704721FA02F3D040DC
:1005C000C2F120029140084319467047202A06DBF9
:1005D000CB17203A41FA02F043EAE07306E041FA11
:1005E00002F3D040C2F120029140084319467047FF
:1005F00010B5141E73F1000408DA401C41F100012B
:1006000092185B411A4301D120F0010010BD2DE981
:10061000F04D92469B4611B1B1FA81F202E0B0FA78
:1006200080F220329046FFF7B2FF04460F4640EAC0
:100630000A0041EA0B0153465A46084313D01146BB
:1006400053EA010019D0C8F140025046FFF7AEFF4F
:1006500005460E46504659464246FFF798FF084366
:1006600005D0012004E020463946BDE8F08D002089
:10067000054346EAE0762C4337430A986305E40ACB
:10068000A0EB08000022FD0A44EA47540A3002D5D4
:1006900000200146E9E7010510196941DDE9084537
:1006A00000196941BDE8F04DA2E7C1F30A52C1F358
:1006B000130140F2FF3341F480119A4202DA002024
:1006C0000146704740F233439A42A2F2334202DCC1
:1006D0005242FFF76BBFFFF75ABF000030B5041E50
:1006E00071F1000404DB4FF00044404264EB01016F
:1006F000141E73F1000405DB1C464FF00043524208
:1007000063EB0403994208BF904230BD064C074D8D
:1007100006E0E06840F0010394E8070098471034D1
:10072000AC42F6D3FFF73AFD1057000830570008E7
:10073000FEE7704780B54FF4805000F023FA4FF485
:100740000050BDE8804000F01DBA72B6FEE7000020
:10075000B0B5074C0025A572A57100F00DF805484D
:100760000178012901BF0121617205706580B0BD6A
:1007700000000020C0000020F8B5BF4D05F10C04BA
:10078000204600F0DBF8204600F028F9BDEEC00A54
:1007900000241326082785ED020A08E0AA5DE0B2CE
:1007A00004210123009702F01BFA013E0834A6F150
:1007B0000C000028F2DA02F0E9F8A868002102F043
:1007C00035FB58496860EB780A785749062B097859
:1007D0000AD3012908D1022A06D0544F3F78413F5D
:1007E000FFB2012F40F29280B3FA83F74FEA571C11
:1007F0004F1EB7FA87F77F091CEA070E09D0022AB5
:1008000007D14A4A1278413AD2B2012A7ED900244D
:1008100011E0A2F10904082BB4FA84F44FEA54144D
:1008200009D3012907D1092A05D0404A1278433A51
:10083000D2B2052A6AD90EEA0402012A0BD13B4939
:1008400009784339C9B2062960D339490124002205
:100850000023097822E00027062B38BF01278A1ED3
:10086000114618BF012157EA01043149097807D11F
:10087000032905D02D4B1B78413BDBB2012B45D919
:10088000B2FA82F253091CEA030207D0032905D108
:10089000264F3F78413FFFB2012F37D93CB9042999
:1008A00005D0224F3F78433FFFB2012F2ED90F1FB3
:1008B000B7FA87F77F091740012F05D11B4F3F7803
:1008C000433FFFB2012F21D9052912D06F78AE78AE
:1008D000043E043FB6FA86F6B7FA87F776097F0931
:1008E00037433B4005D0114B1B78453BDBB2032B14
:1008F0000CD90539B1FA81F149091140012907D113
:100900000A4909784539C9B2032901D8012129705A
:10091000084AC0F12201223011700749087001B065
:10092000F0BD00BF000000200700002026000020CE
:10093000010000200200002003000020F8B5254D32
:10094000254F04464FF48051A5F500663046B84760
:1009500001384FF40061B0FA80F040092070304651
:10096000B84701382021B0FA80F040096070304665
:10097000B84701380121B0FA80F04009A07028463C
:10098000B84701380221B0FA80F04009E0702846EB
:10099000B84701384FF40041B0FA80F040092071A7
:1009A0002846B84701384FF48041B0FA80F040093A
:1009B00060712846B84701384FF40051B0FA80F012
:1009C0004009A0712846B8470138B0FA80F04009C4
:1009D000E071F8BD00080240290D000810B5DFF8ED
:1009E00098C0002100220CF1020EACF801108CF826
:1009F00003100DE0835C53B90131042A73468CF86F
:100A00000310B8BF0CF101031C7801341C700132D3
:100A1000082AEFD19FED190ACAB2042A12D3023074
:100A20000CF11C0200230AE0C45C92ED001A0432AF
:100A3000013302EE104AB8EE422A01EE020A042BFC
:100A4000F2D112E00A0610D00CF1140200230AE0E1
:100A5000C45C92ED001A0432013302EE104AB8EE83
:100A6000422A01EE020A082BF2D19FED041A080671
:100A700008BFB0EE410A10BDC00000200000000019
:100A800070B50446A66D00F059F9054694F8350096
:100A9000022829D12068016821F01601016041690E
:100AA00021F080014161216C09B9A16C19B1016883
:100AB00021F008010160016821F00101016005E0F9
:100AC00000F03CF9401B052812D82068006810F09F
:100AD000010FF5D1E06D3F2101FA00F0B060012077
:100AE00084F83500002008E080206065012004E0E3
:100AF00020206065032084F835000021C0B284F80E
:100B0000341070BD90F8351002291FBF8021416557
:100B100001207047052180F835100068016821F038
:100B2000010101600020704770B505466E1C00F0A1
:100B300005F904461EB1A1480078054401E04FF0D4
:100B4000FF3500F0FBF8001BA842FAD370BD00BFD0
:100B5000F8B50A4E04460025282D08BFF8BD7719C0
:100B6000B888A04208D10648214600F0DDF80128E7
:100B700002BFF8880130F8801435EDE790000020BE
:100B80000004024003490A6802421CBF0860FFF7E4
:100B9000DFBF7047143C01402DE9FC4F5B4A07273B
:100BA0004FF0010E4FF0030A4FF0000B4FF000081A
:100BB000904208BF0427564A02444FEAB223042B4E
:100BC00038BF4FEAB22700970027102F08BFBDE8B3
:100BD000FC8F0A680EFA07F4224200F090804B68FE
:100BE00003F00302551E012D15D8D0F808C00AFAEB
:100BF00008F52CEA050CCD6805FA08F545EA0C0560
:100C00008560C3F3001505FA07FC4568A54345EA6E
:100C10000C05456001E0032A1DD0C6680AFA08F5F4
:100C2000022A26EA05068D6805FA08F546EA050651
:100C3000C66010D1374D0BF01C020F23934005EA1C
:100C400057060644356A25EA03030D6905FA02F2E0
:100C50001A4332624B68056803F003020AFA08F689
:100C600013F4403F02FA08F225EA060642EA0602B9
:100C7000026044D000220192274A136843F4804363
:100C80001360126802F48042019227F00302234BA2
:100C9000019E234D0BF00C0602EB03090F2259F8BD
:100CA00005C002FA06FE009A2CEA0E0C02FA06F6BD
:100CB0004FF0010E46EA0C0649F805609A684E6846
:100CC000A24316F4801F18BF224316F4001F9A6037
:100CD000144A156825EA040518BF254316F4003F99
:100CE00015605A6822EA040218BF224316F4803FB6
:100CF0005A601A6822EA040218BF22431A600BF1F4
:100D0000040B08F1020801375FE700BF0010024042
:100D10000000FEBFFCFFFF7F44380240003C014062
:100D200008FCFFFF0C3C01400069084018BF01208F
:100D30007047002A08BF0904816170471F48806816
:100D4000704700BF1D480178826811448160704778
:100D500080B50B48016841F400710160016841F4FD
:100D600080610160016841F480710160032000F03E
:100D70007DF80E2000F006F800F022F8002080BD7B
:100D8000003C024070B50D4E04464FF47A71307845
:100D9000B1FBF0F092490968B1FBF0F000F010FBF4
:100DA00001250F2C08D838B94FF0FF30214600221A
:100DB000002500F02FF87460284670BD80000020E8
:100DC00082B0002001900B494A6842F480424A6098
:100DD0004A6802F480420192019A0090086840F04B
:100DE00080500860086800F080500090009802B0C1
:100DF000704700BF40380240002808DB00F01F01A8
:100E00000122400902FA01F1014A42F8201070471C
:100E100000E100E0B0B5144C1A4D00F00F03B0F142
:100E2000FF3FA3F104032B4403F10C03C8BF0319D4
:100E30002868C0F30220051DC41E80F00700072D9E
:100E40004FF0010538BF0024042828BF042005FA0C
:100E500000F00138084005FA04F10F31A0401140BC
:100E6000084300011870B0BD00E400E005494FF6EA
:100E7000FF030A681A4060F30A220348104308601F
:100E8000704700BF0CED00E00000FA052DE9F041CD
:100E900004468846002C00F08480444FD7F80004B4
:100EA00000F00700404507D287F80084D7F8000417
:100EB00000F00700404574D1206810F0020F11D0F7
:100EC000410742BFB96841F4E051B960010742BF30
:100ED000B96841F46041B960B968A26821F0F001D5
:100EE0001143B960C0072BD06068811E022904D26B
:100EF000396811F0007F0BD153E0012804D1396823
:100F000011F4003F04D14CE0396811F0020F48D0D1
:100F1000B96821F003010843B860FFF70FFF0646E8
:100F200041F28835B868616800F00C00B0EB810FC1
:100F300006D0FFF703FF801BA842F3D9032031E05E
:100F4000D7F8000400F00700404507D987F800846F
:100F5000D7F8000400F00700404522D1206810F0C7
:100F6000040F05D0B968E26821F4E0511143B9607B
:100F7000000706D5B868216920F4604040EAC10046
:100F8000B86000F033F8B968094AC1F30311515C45
:100F9000C8401349086007480068FFF7F3FE0020C7
:100FA00000E00120C0B2BDE8F08100BF003802407F
:100FB000E04E00088400002009480B4A00680949F7
:100FC0000968C1F38221515CC84070470448064A51
:100FD000006804490968C1F34231515CC840704758
:100FE000F400002008380240F04E000810B5F14C23
:100FF000606800F00C0213481349082A04D0042A40
:1010000004BF084610BD10BD2068236800F03F02F1
:10101000206813F4800FC0F3881006D1094900231B
:10102000A0FB0101FFF7D2F802E04843B0FBF2F069
:1010300021680222C1F3014102EB4101B0FBF1F052
:1010400010BD00BF0024F40000127A002DE9F84F13
:101050008246BAF1000F00F064819AF80000D44E85
:10106000D44FC0074AD0786800F00C00042807D19C
:10107000306810F4003F41D0DAF80400F0BB50E1D2
:10108000786800F00C00082803D1386810F4800F4D
:10109000EED1DAF80480B8F5803F06D03068B8F5B4
:1010A000A02F13D140F480203060306840F48030AD
:1010B0003060FFF743FE0546306810F4003F1DD155
:1010C000FFF73CFE401B6428F6D9C3E020F48030D3
:1010D0003060306820F480203060FFF72FFE054636
:1010E000B8F1000FE8D1306810F4003F06D0FFF7E8
:1010F00025FE411B03206429F5D913E19AF800006D
:10110000AD4C800731D5786810F00C0F1CD0786892
:1011100000F00C00082804BF386810F4800F13D0CA
:10112000DAF80C00002800F0978001202060FFF71B
:1011300005FE0546306810F0020F0ED1FFF7FEFDE8
:10114000401B0228F6D985E0306810F0020F1CBF62
:10115000DAF80C00012840F0E4803068DAF810106A
:1011600020F0F80040EAC10030609AF80000000763
:1011700022D5DAF8140078B10120C4F8800EFFF708
:10118000DDFD0546386F10F0020F15D1FFF7D6FDD3
:10119000401B0228F6D95DE00020C4F8800EFFF75E
:1011A000CDFD0546386F10F0020F05D0FFF7C6FDE4
:1011B000401B0228F6D94DE09AF80000A3464007EC
:1011C0007CD5F86B4FF0000810F0805F0CD1CDF8A3
:1011D00000804FF00108F86B40F08050F863F86B26
:1011E00000F08050009000987448305810F4807FD0
:1011F00012D17248315841F480713150FFF79EFD91
:1012000005466E48305810F4807F05D1FFF796FDF3
:10121000401B0228F5D91DE0DAF80890B9F1010F5A
:1012200006D0F86EB9F1050F27D140F00400F8663A
:10123000F86E40F00100F866FFF780FD054641F2C8
:101240008834F86E10F0020F31D1FFF777FD401BA4
:10125000A042F6D9032065E000202060FFF76EFD74
:101260000546306810F0020F3FF47FAFFFF766FDD0
:10127000411B03200229F4D954E020F00100F86654
:10128000F86E20F00400F866FFF758FD0546B9F146
:10129000000FD4D141F28839F86E10F0020F06D059
:1012A000FFF74CFD411B03204945F5D93AE0B8F161
:1012B000010F02BFF86B20F08050F863DAF8184095
:1012C000002C72D0786800F00C0008282ED1012C78
:1012D00027D03868DAF81C1000F480028A4220D146
:1012E000DAF8201000F03F028A421AD1DAF82420FE
:1012F00047F6C0710140B1EB821F12D1DAF8281015
:101300004FF6FF72C903914300F44032A1F58031DA
:101310008A4206D1DAF82C1000F07060B0EB016F51
:1013200043D00120C0B201B0BDE8F08F0020CBF85F
:101330006000FFF703FD0546022C0BD15C463068C8
:1013400010F0007F11D0FFF7F9FC411B03200229A8
:10135000F5D9E7E7306810F0007F26D0FFF7EEFC04
:10136000411B03200229F5D9DCE70AF11C052FCD2A
:101370000843D90340EA82104FF6FF72914340EAD6
:101380000560A1F580310843386001202066FFF731
:10139000D5FC0446306810F0007F06D1FFF7CEFC84
:1013A000011B03200229F5D9BCE70020BAE700BFE2
:1013B0000038024004380240000047420038FEFF77
:1013C000411E0020B0EB116F1CBF01207047044A82
:1013D000F023516003490B70072190601160704742
:1013E00010E000E023ED00E07047704790F83C20EB
:1013F000012A01D102211FE0B0B501F10805D1E9B0
:1014000000CE3CCDC96923F47C5322F470521A43B8
:101410002EF4F0431A432CF4E0431A4324F4C0435F
:101420001A432A4322F48042114302685164002186
:1014300080F83C10BDE8B040C8B2704790F83C302E
:101440000222012B2FD010B5012380F83C3080F808
:101450003D200268D2F804E0D2F808C00C68B2F16E
:10146000804F2EF0700343EA04035360BDE8104040
:101470000ED0914B9A421CBF904B9A4208D0904B91
:101480009A421CBF8F4B9A4202D08F4B9A4204D192
:1014900049682CF08003194391600121002280F8F3
:1014A0003D1080F83C20D0B2704700BF10B5044614
:1014B00034B394F83D0028B9002084F83C0020465D
:1014C00000F020F80220211D84F83D00206801F082
:1014D000A7FD012084F8460084F83E0084F83F0010
:1014E00084F8400084F8410084F8420084F8430006
:1014F00084F8440084F8450084F83D00002010BDC5
:10150000012010BD10B586B0044601A81421FEF7D5
:1015100095FE21683B48684A91421FD0674A914234
:101520003DD0394A914246D0664A914255D0664AEA
:10153000914265D1002100220091416941F00101F1
:1015400041610021406900F00100009000981820DE
:10155000FFF760FC1820FFF74FFC37E000210091F7
:10156000026942F002020261026902F00202009284
:10157000009A0091026842F002020260006800F0E6
:10158000020000900098012001900220CDE90201A4
:10159000CDE9041001A91D48FFF7FEFA30E0002153
:1015A0000091016941F004010161006900F004004B
:1015B0000090009824E000210091416941F400313D
:1015C0004161406900F4003000900098192000212A
:1015D0000022FFF71FFC192010E0002100220091DB
:1015E000416941F4803141610021406900F480305B
:1015F000009000981820FFF70DFC1820FFF7FCFB67
:1016000006B010BD303802400044014000040240E2
:1016100090F83D1001291CBF01207047022180F87D
:101620003D100068B0F1804F0ED0234988421CBFA6
:101630002249884208D0224988421CBF2149884259
:1016400002D02149884204D1816801F007010629AE
:1016500003D0016841F0010101600020704700BF24
:1016600090F83D1001291CBF01207047022180F82D
:101670003D100068C168B0F1804F41F00101C160C8
:101680000ED00D4988421CBF0C49884208D00C4935
:1016900088421CBF0B49884202D00B49884204D1C2
:1016A000816801F00701062903D0016841F00101BA
:1016B00001600020704700BF0004004000080040A7
:1016C000000C0040004001400000014010B50446FD
:1016D000022094F83C20012A70D001224FF6777343
:1016E00084F83C2084F83D00206882689A43826038
:1016F0000A6812B3102A20D0202A18BF302A1CD022
:10170000402A21D0502A2BD0602A35D0B2F5005F74
:101710003ED0B2F5805F4AD0702A51D1D1E9012381
:10172000C9681A4342EA0121826822F47F421143C8
:101730008160816841F0770138E0816821F07701AC
:10174000114341F0070131E04B68CA68194601F0C6
:1017500067FD2068816821F0770141F0470125E0AD
:101760004B68CA68194601F05BFD2068816821F06A
:10177000770141F0570119E04B68CA68194601F03A
:1017800099FD2068816821F0770141F067010DE043
:10179000D1E90123C9681A4342EA0121826822F48F
:1017A0007F4211438160816841F480418160002063
:1017B000012184F83D10002184F83C10C0B210BD16
:1017C0000120F5E770470000B0B504460D4694F8D7
:1017D0003C00012801D102206CE04FEAB201012057
:1017E000032984F83C0062D8DFE801F0020C1637C8
:1017F000D5E90012EB68206801F024FD206850F85C
:10180000181F25E0D5E90012EB68206801F064FD9F
:10181000206850F8181F41E0D5E900C22368E86845
:10182000D3F820E0196A60F30712184621F480719A
:10183000196250F81C1F21F0F30111432EF42062AD
:1018400001604FF4206101EA0C2111431962016823
:1018500021F00C010160A96825E0D5E900C02368EA
:10186000EA68D3F820E0196A000221F48051196275
:101870004FF2FF0120EA0101184662F30F3150F8E0
:101880001C2F22F4734211432EF4204201604FF4C6
:10189000204101EA0C3111431962016821F44061D1
:1018A0000160A9680902026811430160002000215B
:1018B00084F83C10C0B2B0BD10B5044634B394F8FF
:1018C0003D0028B9002084F83C00204600F020F8B4
:1018D0000220211D84F83D00206801F0A1FB0120B9
:1018E00084F8460084F83E0084F83F0084F8400005
:1018F00084F8410084F8420084F8430084F84400EE
:1019000084F8450084F83D00002010BD012010BD82
:101910007047B0B504462068C168026901EA020553
:10192000A90714D56FF002010161012121778069B7
:1019300010F0030F03D02046FFF744FF05E02046D8
:1019400000F0C6F8204600F03FF900202077680735
:1019500015D520686FF004010161022121778069AB
:1019600010F4407F03D02046FFF72CFF05E020460F
:1019700000F0AEF8204600F027F900202077280775
:1019800015D520686FF00801016104212177C06935
:1019900010F0030F03D02046FFF714FF05E02046A8
:1019A00000F096F8204600F00FF900202077E806B6
:1019B00015D520686FF01001016108212177C069F9
:1019C00010F4407F03D02046FFF7FCFE05E02046E0
:1019D00000F07EF8204600F0F7F800202077E807B6
:1019E00006D020686FF001010161204600F04CF93B
:1019F000280606D520686FF0800101612046FFF7B8
:101A0000F3FC680606D520686FF0400101612046AE
:101A100000F094F9A80658BFB0BD20686FF020010F
:101A200001612046BDE8B040FFF7DFBC10B586B0CD
:101A3000044601A81421FEF701FC2268224823492C
:101A40008B4B9A421AD08B4B9A4225D08C4B9A42A0
:101A500038D10022A0F5806000920B6843F00103AA
:101A60000B60096801F00101009100994FF4807149
:101A700001910221CDE9021201211EE00022009213
:101A80000B6843F002030B60096801F0020100914A
:101A90000099022101910EE0002200920B6843F0B0
:101AA00002030B60096801F00201009100994FF4F4
:101AB000707101910221029103920492059101A992
:101AC000FFF76AF806B010BD00040240303802404B
:101AD00070470000B0B504460D4694F83C0001285C
:101AE00001D1022041E04FEAB2010120032984F82C
:101AF0003C0037D8DFE801F0020A122220682946AC
:101B000001F0DEFA206850F8181F0EE02068294620
:101B100001F002FB206850F8181F16E020682946E3
:101B200001F02AFB206850F81C1F41F008010160F9
:101B3000016821F00401016029690FE0206829464D
:101B400001F04AFB206850F81C1F41F4006101605D
:101B5000016821F48061016029690902026811436A
:101B600001600020002184F83C10C0B2B0BD10B567
:101B7000044634B394F83D0028B9002084F83C00B2
:101B8000204600F020F80220211D84F83D00206846
:101B900001F046FA012084F8460084F83E0084F8FB
:101BA0003F0084F8400084F8410084F8420084F843
:101BB000430084F8440084F8450084F83D00002088
:101BC00010BD012010BD70477047000039B10322DD
:101BD000082908BF0222042908BF012200E00022D0
:101BE000024492F83E20012A1CBF012070470222C5
:101BF00041B1082909D0042914BF80F8412080F898
:101C00003F2004E080F83E2001E080F8402000689A
:101C100001F01F01012202FA01F1026AB0F1804FC6
:101C200022EA01020262026A41EA0201016213D061
:101C30000F4988421CBF0F4988420DD00E49884287
:101C40001CBF0E49884207D00D49884209D10D4971
:101C50000A6842F400420A60816801F0070106291F
:101C600003D0016841F0010101600020704700BF0E
:101C70000004004000080040000C0040004001400B
:101C8000000001404400014080B52DED028B254944
:101C900088421BD1DFF890E04FF0000CB2EE060A4C
:101CA000002311E00EEB03011433CA8891ED031AEF
:101CB00002EE102A21EE001AB8EE422A82EE011A34
:101CC00081ED041AA1F806C0282BEBD117498842F0
:101CD0001CBFBDEC028B80BD15480188013101801D
:101CE0001148018809B1013101801248B7EE008A1C
:101CF000F0EE480A007800EE100A0020B8EE400A24
:101D000002F01CFB0C48F0EE480A007800EE100AC6
:101D10000120B8EE400ABDEC028BBDE8804002F025
:101D200059BB00BF1002002090000020E8020020F4
:101D30000E000020020000200300002070477047C2
:101D400070470000F8B5044620680168C26845691C
:101D500001F02F0602F02003202E05D123B12046EA
:101D6000BDE8F84001F003BB5FEA017C08D005F054
:101D7000010E12F4907F8EF0010559D1002D57D03D
:101D80001140CA06226B3DD5012A3BD100210091AA
:101D900001680091416800910099416911F0400F7C
:101DA00040F0A580A18DE28DE38D002B00F0108125
:101DB000891A89B209B90BE1206850E8030F22683B
:101DC00020F4907042E80303002BF5D1206850E81E
:101DD000050F226820F0010042E80503002BF5D131
:101DE000202084F8420000202063206850E8030F80
:101DF000226820F0100042E80303002BF5D10220F6
:101E00006063B9E00A0640F1BC8094F841102129D2
:101E100040F0DE80A168B1F5805F04BF2169002930
:101E200000F0C880216A4A1C226209784160C8E03B
:101E3000CE0706D012F480761EBF666C46F001060F
:101E4000666401F00407012686EA97072F4302BF64
:101E5000676C47F00207676401F0020786EA5706DD
:101E6000354302BF656C45F00405656453EA0E0313
:101E700018BF0123BCF1000F05D5012B02BF636C15
:101E800043F008036364636C002B00F0A1801140F1
:101E9000890603D5204601F06AFA20684069616C22
:101EA00000F0400001F0080108437DD0204601F019
:101EB00037FA2068416911F0400F01D16FE02068C6
:101EC00050E8050F216820F0400041E80502002A93
:101ED000F5D1E06B002862D042490165FEF712FEA1
:101EE000002875D0E06B016DBDE8F8400847E26B53
:101EF00011684B689EB2002E6AD0A18D8E4267D2C7
:101F0000E385D269B2F5807F01D130E0206850E8E6
:101F1000030F216820F4807041E80302002AF5D104
:101F2000206850E8050F216820F0010041E8050213
:101F3000002AF5D1206850E8050F216820F0400004
:101F400041E80502002AF5D1202084F84200002053
:101F50002063206850E8030F216820F0100041E85A
:101F60000302002AF5D1E06BFEF78AFDA18D022065
:101F70006063E08D081A81B22046BDE8F840FFF7A3
:101F8000DEBE490624D5C16821F04001C160202091
:101F900084F841002046BDE8F84000F0B8B920467A
:101FA000BDE8F840FFF7CCBE2046FFF7C9FE002091
:101FB0006064F8BD216A31F8022B6FF35F22426042
:101FC0002162E18C4FF6FF7201391142E18400D0A9
:101FD000F8BDC16821F08001C160C16841F04001D5
:101FE000C160F8BD1533000810B504464CB394F831
:101FF000410028B9002084F84000204600F024F871
:10200000242084F841002068C16821F40051C16097
:10201000204601F011FA2068016921F49041016124
:10202000416921F02A014161C16841F40051C16058
:1020300000202021606484F8411084F8421060631D
:1020400010BD012010BD000010B586B0044601A8E7
:102050001421FEF7F3F82268444845497A4B9A4226
:102060002ED0444B9A4253D0434B9A427BD100220C
:1020700000924B6943F010034B614B6903F010036E
:102080000093009B00920B6843F001030B6009680A
:1020900001F00101009100994FF4C061019102210A
:1020A000CDE90212032104910721059101A9FEF750
:1020B00073FD252003210022FEF7ACFE252050E011
:1020C000002200920B6943F400330B610B6903F4A7
:1020D00000330093009B00920B6843F001030B60F8
:1020E000096801F00101009100990C210191022180
:1020F000CDE90212032104910721059101A9FEF700
:102100004BFD262003210022FEF784FE262028E036
:10211000002200F5006000924B6943F020034B6100
:102120004B6903F020030093009B00920B6843F07F
:1021300004030B60096801F0040100910099C021BB
:1021400001910221CDE90212032104910821059198
:1021500001A9FEF721FD47200F210022FEF75AFEBC
:102160004720FEF749FE06B010BD00BF0000024048
:1021700030380240001401400010014010B590F8C2
:102180004230202B07D1012431B12AB1002404634D
:1021900001F0B8F900E00224E0B210BD70B50446C9
:1021A0002068294E06F54C4188420AD1274D15F882
:1021B0000B0F00F0C7FD264829460122FFF7DEFF7E
:1021C000206806F55041884233D1204DE87A411EFF
:1021D000032920D8DFE801F002070F1700F0D6FB33
:1021E0001C48052103E000F0B7FB1A480A210170E2
:1021F000194801700EE017480A2101701648017055
:1022000000F0F8FB06E013480A2101701248017043
:1022100000F00AFCE87A052804D10E48002101707C
:102220000D4801700D4805F10B010122FFF7A6FFD3
:102230002068B04218BF70BD0449012201F11800A6
:102240000C31FFF79BFF70BD0044004020000020D0
:102250000001002003000020020000206001002097
:102260002DE9F84304461D461746884694F8410078
:1022700020281CD1B8F1000F4FF0010018BF002F2B
:1022800042D04FF000092120C4F8449084F8410066
:10229000FEF754FDA784E7840646A068B0F5805F8A
:1022A00007D12769002F0CBFC146474618E002201E
:1022B0002AE0474614E02046802132462B4601F0B2
:1022C0003AF9E8B9206817B117F8011B04E039F8AA
:1022D000021B00276FF35F214160E08C0138E0842E
:1022E000E08C0028E7D12046402132462B4601F001
:1022F00022F92021002884F8411018BF032003E0B0
:10230000202084F84100032001B0BDE8F08370472D
:10231000FEE70000B0B5374C984D4FF40061012244
:102320002046A84720464FF480510122A847204666
:102330004FF480510022A84720464FF4006100224C
:102340002B46BDE8B0401847B0B52A4C8B4D4FF432
:10235000006101222046A84720464FF48051002208
:10236000A84720464FF4805101222B46BDE8B040DB
:10237000184700BF10B51F4C4FF4006101222046E2
:10238000FEF7D7FC20464FF400610022BDE8104064
:10239000FEF7CFBC10B5174C20212046FEF7C4FC39
:1023A000A8B120462021FEF7BFFC012818BF10BDB0
:1023B000114800210173C17901290DD1C17A013180
:1023C000C172C9B2042924BF0221C17110BD0A48DB
:1023D0000021C172C17901B110BD017B01310173CE
:1023E000C9B2042922BF40F20111A0F8071010BDA4
:1023F00010BD00BF00080240000000202DE9F04F92
:1024000087B000275D4E0022CDE905770197594836
:10241000016841F004010160016801F004010191CB
:1024200001990197016841F080010160016801F0A4
:102430008001019101990197016841F0010101605A
:10244000016801F00101019101990197016841F0D2
:1024500002010160016801F00201019101990197F7
:10246000016841F0080101601021006800F00800D7
:1024700001900198404C2046B04704F580690C213A
:1024800000224846B04704F500654FF44071002231
:102490002846B04728464FF4C05101224FF0010AA8
:1024A000B04704F54060042100220090B047DFF8F7
:1024B000D0B04EF2230002AE4FF00208CDE9020781
:1024C00028463146CDF81080D84740F20C4002A98A
:1024D00081E8810428463146D847E12002A981E8F5
:1024E000810420463146D84710203146CDE9020A02
:1024F0002046CDE90477D8470C203146CDE9020AC1
:102500004846CDE90487D8474FF440503146029001
:102510004FF48810CDE903084846D8474FF440707F
:102520003146CDE9020A2846CDE90487D8474FF461
:10253000C05920463146CDE90297CDF81080D847E2
:1025400028463146CDE9029ACDE904A7D8470420B0
:102550003146CDE9020ACDE904770098D847282012
:1025600001210022FEF756FC2820FEF745FC07B0AB
:10257000BDE8F08F3038024000000240330D000803
:10258000990B000880B50A480A495322002342F2F9
:102590000F7C80E80E10802103618161FEF786FFC9
:1025A00008B1FEF7D2F80248BDE88040FFF758B8FE
:1025B000100200200044014010B596B0002409A884
:1025C0001C21CDE91444CDE91244CDE91044FDF7B6
:1025D00035FE01A82021FDF731FE2C482C4953225D
:1025E0004FF47A734FF0800C80E81600C0E9033492
:1025F000C0E9054CFEF75AFF08B1FEF7A6F84FF404
:10260000805012A912902148FFF760F808B1FEF738
:102610009CF81E48FFF7ABFA08B1FEF796F81B4886
:10262000002410A9CDE91044FEF708FF08B1FEF719
:102630008CF8602009A90022099064200A900220E9
:102640000F94CDE90D44CDE90B041048FFF742FA91
:1026500008B1FEF77AF801AC14212046FDF7EEFD33
:102660004FF4005021460690002008900748FEF7DE
:10267000BDFE08B1FEF769F8044C2046FEF7C8FF1E
:102680002046FFF7D3F916B010BD00BFC8010020E7
:102690000000014010B592B0002401A81C21CDE932
:1026A0001044CDE90E44CDE90C44CDE90A44CDE90E
:1026B0000844FDF7C3FD2948294953224FF6FF730B
:1026C00080E81600C0E903348461FEF7EFFE08B12C
:1026D000FEF73BF84FF480500EA90E901F48FEF70E
:1026E000F5FF08B1FEF731F81C48FFF7E5F808B12F
:1026F000FEF72BF81948FFF73AFA08B1FEF725F86C
:10270000164800240CA9CDE90C44FEF797FE08B149
:10271000FEF71BF80120089408A90822CDE9090456
:102720000E480B94FFF750F808B1FEF70EF8602042
:1027300001A90C2201900020CDE902000590074874
:10274000FFF7C8F908B1FEF700F8044C2046FEF781
:102750005FFF2046FFF76AF912B010BD5802002053
:102760000004004010B58EB0002401A81C21CDE962
:102770000C44CDE90A44CDE90844FDF75FFD2C483F
:102780002C4953224FF47A7380E816008021C0E967
:1027900003348161FEF78AFE08B1FDF7D6FF4FF4DE
:1027A00080500AA90A902248FEF790FF08B1FDF771
:1027B000CCFF1F48FFF7DBF908B1FDF7C6FF1C4847
:1027C000002408A9CDE90844FEF738FE08B1FDF75A
:1027D000BCFF602001A90022CDE901041448039444
:1027E0000594FFF777F908B1FDF7AFFF104801A98D
:1027F0000422FFF76FF908B1FDF7A7FF0C4801A904
:102800000822FFF767F908B1FDF79FFF084801A903
:102810000C22FFF75FF908B1FDF797FF044C204643
:10282000FEF7F6FE2046FFF701F90EB010BD00BF1F
:10283000A002002000080040F8B50021114840F235
:10284000473340F2E73CCDE90211CDE900110E4AD1
:10285000C0E90023C0E9021C016180218161FEF70B
:1028600025FE08B1FDF771FF4FF4805069460090D6
:102870000448FEF72BFF08B1FDF767FF0148FEF79C
:10288000EFFE8FBDE80200200040014080B50B48FC
:102890000B494FF4E13200234FF00C0C80E80E009E
:1028A000C0E90333C0E905C3C361FFF79DFB18B15D
:1028B000BDE88040FDF749BF80BD00BF000100209A
:1028C0000010014080B50B480B4900220C2340F852
:1028D000181F4FF41651C0E90112C0E90322C0E9E4
:1028E0000532C261FFF780FB18B1BDE88040FDF7FB
:1028F0002CBF80BD2000002000440040BCB5134C1C
:1029000013484FF4E13100250C2284E823002046CF
:10291000C4E90355C4E90525E561FFF765FB08B186
:10292000FDF713FF2068C16821F01001C160019517
:10293000016801914168019101996FF040010160C6
:10294000C16841F01001C160B3BD00BF600100204B
:1029500000140140FEE70000B0B5404C404D04219A
:1029600000222046A847204608210122A84704F556
:1029700080644FF4807101222046A84720464FF41E
:10298000007100222B46BDE8B0401847B0B5334C6B
:10299000334D042101222046A84720460821002269
:1029A000A84704F580644FF4807100222046A847B0
:1029B00020464FF4007101222B46BDE8B040184775
:1029C000B0B5264C264D042100222046A8472046BB
:1029D00008210022A84704F580644FF4807100228A
:1029E0002046A84720464FF4007100222B46BDE840
:1029F000B0401847B0B5194C194D042101222046AA
:102A0000A847204608210022A84704F580644FF417
:102A1000807101222046A84720464FF40071002211
:102A20002B46BDE8B0401847B0B50C4C0C4D042106
:102A300000222046A847204608210122A84704F585
:102A400080644FF4807100222046A84720464FF44E
:102A5000007101222B46BDE8B04018470004024037
:102A6000330D0008FEE7000070B5374D0024082C38
:102A700008BF70BD04F1B000C0B2A8470020002616
:102A8000A8471020A84703E0002000F0DFFD013632
:102A900070B20028F8DA0134E9E700BF10B54FF44E
:102AA000FA70FEF741F8284CAE20A0470020A0475E
:102AB0001020A0474020A047B020A0478120A04779
:102AC000FF20A047A120A047A620A047A820A047FC
:102AD0003F20A047C820A047D320A0470020A04700
:102AE000D520A0478020A047D820A0470520A04798
:102AF000D920A047F120A047DA20A0471220A04704
:102B0000DB20A0473020A0478D20A0471420A047FD
:102B1000AF20A047C820FEF707F8BDE81040FFF738
:102B2000A3BF00BFB0B5084D044601F1B000C0B26C
:102B3000A847102040EA1410A84704F00F002946C7
:102B4000BDE8B040084700BF253600082DE9F8432E
:102B500005460C461E46174668B2B0F1FF3FDCBF83
:102B600002340025E1B22846FFF7DCFFA7F1200080
:102B7000102EC0B220D1DFF864804FEA0019002780
:102B800008EB001603E0F05D00F060FD0137082F50
:102B9000F9D1601CC1B22846FFF7C4FF49F0080014
:102BA000002508EB0004082D08BFBDE8F883605D30
:102BB00000F04CFD0135F6E7074900EB4000002529
:102BC00001EB400403E0605D00F040FD0135062D9F
:102BD000F9D1BDE8F88300BFF84E00082051000885
:102BE0002DE9F84F1C46074692468B464FF00008E9
:102BF0004FF00009601E04F1FF0500900A98460896
:102C0000A04508BFBDE8F88FA5EB0800012103E04F
:102C100001EB8101013849000206F9D1BAFBF1F05C
:102C20000A21B0FBF1F101EB8101A0EB41015FEA68
:102C3000096005D10098404502DD71B14FF00109EE
:102C40000A9B08FB067041F03001CAB2C0B2594677
:102C5000FFF77CFF08F10108D2E70A9B08FB06702A
:102C600059462022C0B2FFF771FF4FF00009F1E78B
:102C70002DE9F84F1C46074692468B464FF0000858
:102C80004FF00009601E04F1FF0500900A98460805
:102C9000A04508BFBDE8F88FA5EB0800012103E0BF
:102CA00001EB8101013849000206F9D1BAFBF1F0CC
:102CB0000A21B0FBF1F101EB8101A0EB41015FEAD8
:102CC000096005D10098404502DD71B14FF001095E
:102CD0000A9B08FB067041F03001CAB2C0B25946E7
:102CE000FFF734FF08F10108D2E70A9B08FB0670E2
:102CF00059462022C0B2FFF729FF4FF00009F1E743
:102D00002DE9F84314460D46064600274FF0080803
:102D10004FF002090FE0F0B2E9B20823FFF716FF07
:102D200006F108000137C0B2792826BF59FA85F5A7
:102D3000002658FA86F6F8B2225C002AEBD1BDE8EC
:102D4000F88300007CB5374C2C28617808BF002937
:102D500038D0122808BF01293ED0032946D00229C5
:102D60004CD122785B2802F1010104EB4202217070
:102D7000508002D0C8B20A2853D30320A61C6F4D3E
:102D800003236070C8B2062106EB400010F80A2C3D
:102D90000420009023202A70FFF76AFF207806EBBA
:102DA000400010F8081C697010F8061C10F8040C9C
:102DB000A970E870286901302861A87A88BB0120D1
:102DC000A8727CBD012060702078411C04EB40009B
:102DD00021702C2141807CBD022060702078411C34
:102DE00004EB40002170122141807CBD207834F832
:102DF00010005B280CD1002020807CBD0020012128
:102E000020800B2908BF7CBD24F811000131F8E7B0
:102E100000200121208002E024F8110001310B295B
:102E2000FAD17CBDB001002070470000401A104963
:102E3000B0EE082A00EE100AB8EEC00AB0EE403A32
:102E400081ED000A91ED021A31EE001A81ED021AAD
:102E500091ED031A30EE411A01EE023A81ED013A8A
:102E6000BDEEC31A81ED030A11EE100A704700BFD0
:102E700048010020704700002DE9F041164F194E1F
:102E800000250FF25808787807F11404F8B9E8B271
:102E9000042888BFBDE8F0817A79FB792046414655
:102EA00001F09CFB3046214604220423FFF7D8F9A9
:102EB0000135ECE7FB7920464146002201F08EFB0C
:102EC0003046214604220423FFF7CAF90135E8B24F
:102ED0000428EFD9BDE8F081200000202A256425D0
:102EE00064260000000100201448817821B10129E6
:102EF00007D10178017205E0002101724172017170
:102F00007047017A0222022904D0012908D1012147
:102F1000412301E04223022183714271C171704754
:102F2000032938BF704744F20272A0F80520CA1E78
:102F3000D2B2062A38BFC171704700BF20000020FE
:102F4000FDF700BFB0B592B0002401A81421CDE96F
:102F50000A44CDE90844FDF771F9009402251D48A3
:102F6000016841F080510160006800F080500090DD
:102F7000009800941848016865F38F31016054216E
:102F8000006800F4404000900098012006904FF443
:102F9000803007904FF480000C950D9004200E9027
:102FA000CDE90F15119006A8FEF750F808B172B6DA
:102FB000FEE70F200221CDE901054FF48050039474
:102FC000CDE9040401A8FDF761FF08B172B6FEE780
:102FD00012B0B0BD403802400070004002480168A5
:102FE00041F470010160704788ED00E080B50A4847
:102FF000FEF78FFC0248BDE88040FEF78ABC00BFA8
:10300000E802002080B50448FEF783FC0348BDE8D1
:103010008040FEF77EBC00BFC801002010020020E7
:1030200010B5B0F1804F0368A14A1CBF9C4CA04270
:1030300008D09C4CA0421CBF9D4CA04202D09A4C90
:10304000A04203D14C6823F070032343B0F1804FBA
:1030500014D0934CA0421CBF924CA0420ED0924C74
:10306000A0421CBF924CA04208D0904CA0421CBF72
:10307000114CA04202D0114CA04203D1CC6823F4E1
:10308000407323434C6923F08003904243EA0403D6
:1030900003608B68C3620B68836204BF09691163B4
:1030A00001214161016911F0010F1EBF016921F089
:1030B0000101016110BD00BF004801400044014012
:1030C00070B5D0F820C0026A22F0010202622CF032
:1030D0000202D0F804E085698C680B68144325F07F
:1030E000730242EA030C724A90420DD1CE68D1E9D4
:1030F00005352EF440721A4326F0040342EA050E09
:1031000024F00C0243EA0204C0F804E0C0F818C03E
:1031100049684163046270BD70B5D0F820C0036A8D
:1031200023F010032CF020020362D0F804E083693E
:103130008C680D6842EA041423F4E64242EA052C46
:103140005B4A904210D1CE68D1E905352EF4406239
:1031500042EA830224F0C00342EA850E6FF04F0278
:1031600002EA061242EA0304C0F804E0C0F818C0FC
:1031700049688163046270BD70B5D0F820C0036AED
:1031800023F480732CF400720362D0F804E0C36966
:103190008C680D6842EA042423F0730242EA050CAD
:1031A000434A904210D1CE68D1E905352EF4405201
:1031B00042EA031240F2FF4342EA051E32029A43FA
:1031C00024F4406342EA0304C0F804E0C0F81CC0E1
:1031D0004968C163046270BDB0B5D0F820C0036A0D
:1031E00023F4805303622CF40053D0F804E0C56943
:1031F0008A680C6843EA023C2D4B25F4E64242EA19
:103200000422984202BF4B692EF4804545EA831E92
:10321000C0F804E0C26149680164C0F820C0B0BDD4
:10322000D0F820C0036A23F001030362836923F00E
:10323000F00343EA021282612CF00A021143016298
:103240007047000010B5D0F820C0D0F820E0B0F1F1
:10325000804F2EF0010EC0F820E0D0F818E00ED01C
:103260000F4CA0421CBF0F4CA04208D00E4CA042F5
:103270001CBF0E4CA04202D00D4CA04203D12EF038
:103280000304224301E04EF0010263F3071201F050
:103290000A0182612CF00A021143016210BD00BFD5
:1032A0000004004000080040000C004000400140C5
:1032B00000000140D0F820C0036A23F0100303622D
:1032C000836923F4704343EA023282612CF0A00246
:1032D00042EA01110162704780B5D0F820C0D0F8F1
:1032E00020E02EF0100EC0F820E04FEA022E4FF240
:1032F000FF022EEA020263F30F32836923F4734361
:103300001A438261A02202EA01112CF0A0021143AB
:10331000016280BD806B0021C185C184FEF710BDB4
:10332000016851E8031F026821F4907142E8031319
:10333000002BF5D1016851E8051F026821F0010159
:1033400042E80513002BF5D1016B012909D1016871
:1033500051E8031F026821F0100142E80313002B1B
:10336000F5D1202180F8421000210163704790F8C8
:103370004210222918BF70478368B3F5805F06D1D9
:10338000026900F12801A2B1D1F800C008E00146AD
:10339000002B51F828CF01D103690BB17F2300E046
:1033A000FF23026852681A4001238CF800200A6843
:1033B00006E00368826A5B686FF35F231380022371
:1033C0001A440A604FF6FF72C18D01391142C1855E
:1033D00000D070470168CA6822F02002CA60CA683B
:1033E00022F48072CA604A6922F001024A612022F6
:1033F00080F8422000224263036B012B18BFFEF7C6
:10340000CDBE026351E8031F026821F0100142E8BB
:1034100003130168002BF5D10A6812F0100F08D0D1
:1034200081B0002200920A680092496800910099D8
:1034300001B0818DFEF783BCB0B5044649F20C653E
:1034400020680169E26821F4405111430161D4F818
:1034500008C0D4E90423D4F81CE0C16842EA0C0295
:10346000A9431A4342EA0E021143C1604169A269AD
:1034700021F440711143416140F480602049884249
:1034800002D1FDF7A3FD01E0FDF796FDE269636857
:103490001921A0FB0101B2F5004F16D15A00DB0F34
:1034A000FCF794FE64216FF06303B0FBF1F202FBC2
:1034B0000300322303EBC000B0FBF1F14FF4F870CE
:1034C00000EA410001F0070113E09A009B0FFCF7AE
:1034D0007DFE64216FF06303B0FBF1F202FB030099
:1034E000322303EB0010B0FBF1F101F0F00001F02A
:1034F0000F0100EB0210084321688860B0BD00BFD7
:1035000000140140816200218285C285416422212C
:1035100080F842100168006918B1C86840F48070F2
:10352000C860486940F001004861C86840F0200068
:10353000C860002070472DE9FC4104461D469046B6
:103540000F4620686E1C01683940B94226D0002E13
:10355000F9D0FDF7F3FB03210DB3A0EB0800A8425F
:103560001DD82068C16811F0040F18BF402FEAD0A1
:10357000802F1CBF016811F0080FE4D000250195D1
:10358000016801914068019001982046FFF7C8FE4C
:1035900008200121606484F8405000E00021C8B296
:1035A00002B0BDE8F08100000148FEF7CBBB00BFD0
:1035B000000100200148FEF7C5BB00BF3800002015
:1035C0000148FEF7BFBB00BF60010020FEE700001E
:1035D000F8B5134C05464FF4006100220026204642
:1035E000FDF7A7FBF0B2072888BFF8BD15F0800FE4
:1035F00020464FF48051EFB20CBF00220122FDF7AC
:1036000098FB20464FF400610122FDF792FB204613
:103610004FF400610022FDF78CFB01367D00E1E7ED
:103620000008024070B50446FEF774FE114D782084
:10363000A847114EB0470020A847B0472046A847EA
:10364000B047BDE87040FEF77FBE00BF70B50446CE
:10365000FEF760FE074D7820A847074EB047402090
:10366000A847B0472046A847B047BDE87040FEF7DE
:103670006BBE00BFD135000875230008E0B58DF89A
:10368000070005480DF1070101224FF0FF33183004
:10369000FEF7E6FD8CBD00BF200000202DE9FE4FA7
:1036A000FDF756FBFFF74EFCFEF7A8FEFEF784FF82
:1036B000FEF7F0FFFFF756F8FFF7E8F8FFF702F91B
:1036C000FFF71CF9FEF75EFFFFF7B6F8DFF8200CF6
:1036D000DFF8206C00214FF0000BB047DFF8184CEA
:1036E000082108252046B04720460C21B047D14884
:1036F000C821DFF8107C01220160DFF8000CDFF840
:10370000001CB847DFF8000CDFF8001C0122B847A6
:10371000DFF8C46E4FF4FA70B047FFF7BFF94FF40B
:10372000FA70B047DFF8ECABDFF8E40B012251464A
:10373000B8475320FFF7A2FFFFF728F9BE4CDFF888
:10374000D87B0421012204F540684046B847204652
:1037500010210122B8474FF49670B047404604212B
:103760000022B847204610210022B8474FF4967037
:10377000B047404604210122B847204610210122CB
:10378000B8474FF49670B047404604210022B8472E
:10379000204610210022B8474FF49670B047DFF85A
:1037A000346EDFF8787BDFF8789BCDE90148B27999
:1037B0001020022102230095B8479AF8002010201B
:1037C00004210C23FFF7C2F9F27810200321022311
:1037D0000095B847B2782020032102230095B8470E
:1037E000F0890A2814D33079411C3171C9B2F079BB
:1037F000642903D310B95320FFF740FFA6F80EB099
:10380000FFF73AFB307A08B9FEF7C4FD00F02EFE50
:10381000F17999F80000012908BF012805D1FFF7C7
:1038200063FBDFF8B00C80F800B09AF80000432882
:103830000DD1404604210122FDF77BFA20461021DC
:103840000122FDF776FA9AF8000086F805B04628BE
:1038500004BF0120707199F800000228A7D100F080
:1038600005FEF07902283AD00128A0D1DFF8B40A89
:1038700032780078422800F06780412840F0888044
:10388000032A94D8DFE812F0040084018A01980129
:103890004046042100224FF00008FDF74AFA204676
:1038A00010210022FDF745FA5020FFF7E7FEC8205F
:1038B000FDF73AF986F8098086F8068003E0FCF700
:1038C00047FF96F809805FEA0860F8D0C820FDF746
:1038D0002BF93078DDF808800130307067E740461A
:1038E00004210022FDF725FADFF8380A0078413874
:1038F00007283FF65CAFDFE810F008008500A7005E
:10390000B500C300EE0019013801707804283FF6B5
:103910004EAFDFE810F00500060389011403C8026A
:10392000022000F0E9FDDFF8001A42208847DFF8A6
:10393000F81942208847DFF8F01942208847DFF85D
:10394000E8194220884776E1032A3FF630AFDFE8E6
:1039500012F004003D014B016501404604210022A4
:10396000A0460024FDF7E5F9404610210022FDF7AE
:10397000E0F9B471747202E0FCF7EAFE747A200692
:10398000FAD0C820FDF7D0F830780130307036E03A
:1039900004200321032300900A20FFF769F93078FF
:1039A0000A283FF604AFDFE810F00B009801A901E8
:1039B000DC015501FA010B023D025A026D0177024A
:1039C0005020FFF75BFE5020FFF758FE40460421D1
:1039D0000022A0460024FDF7ACF940461021002249
:1039E000FDF7A7F9B471747202E0FCF7B1FE747AC6
:1039F0002006FAD0307801303070FFF73DFADDE96B
:103A00000148D4E6707804283FF6D1AEDFE810F024
:103A100036000500BA00A5024B02B07901287FF4F8
:103A2000C6AEC82086F806B086F809B0FDF77CF867
:103A300006E000BF3400014000000240FCF788FEB1
:103A4000707A0028FAD0F6E0707805283FF6AFAE1D
:103A5000DFE810F00600C6029702D302A4023A0281
:103A60000220E6E0707805283FF6A1AEDFE810F00E
:103A70000600D502E702A302F8022C020320D8E0D8
:103A8000707806283FF693AEDFE810F05D0007007F
:103A9000CE00F702CE000503DC00B07901287FF4E8
:103AA00086AEDFF8841842208847DFF87C18422071
:103AB0008847DFF8741842208847DFF86C184220E6
:103AC00088470020B071707202E0FCF741FE707A06
:103AD0000006FAD0AFE0707806283FF668AEDFE85F
:103AE00010F0080207005100E802A300F602B1003E
:103AF000B07901287FF45BAEDFF82C1842208847AC
:103B0000DFF8241842208847DFF81C184220884735
:103B1000DFF81418422088470020B071707202E06C
:103B2000FCF716FE707A0006FAD084E0707806285A
:103B30003FF63DAEDFE810F00700D9027800F4024E
:103B4000260002038600DFF8E01746208847DFF8EA
:103B5000D81746208847DFF8D01746208847DFF877
:103B6000C817462088470320D4E1707806283FF61E
:103B70001EAEDFE810F0BE01F902070013030700D4
:103B800021036700707A01287FF411AE002050E015
:103B9000707A01287FF40BAE002036E0B07901285E
:103BA0007FF405AE0020B071707202E0FCF7D0FD2A
:103BB000707A0006FAD02AE0707A012804BF052046
:103BC00000F09AFCC820FCF7AFFFF0E5707A0128FE
:103BD00004BF012000F090FCC820FCF7A5FFB079DD
:103BE00001287FF4E4AD12E0B07901287FF4DFAD65
:103BF0000020B071707202E0FCF7AAFD707A000636
:103C0000FAD0C820FCF790FF052000F075FCC82012
:103C1000FCF78AFF307801303070C8E5B0790128B0
:103C200008BFA6F802B0C2E5707A01287FF4BFADE4
:103C3000012000F061FCC820FCF776FF70780130AD
:103C40007070B4E5204610210122FDF772F8C6F825
:103C500010B045E1707A01287FF4A9ADDFF8CC16E9
:103C6000DFF8CC26DFF86C080978127800788A42F1
:103C700008BF012840F0F18205203070DFF8A4066B
:103C800045210CE3404604210122FDF752F8B079AA
:103C9000012815D10020B0717072708002E0FCF72D
:103CA00057FD707A0006FAD0C820FCF73DFF0520CA
:103CB00000F022FCC820FCF737FF3078013030706C
:103CC000DFF8641647208847DFF85C1647208847EE
:103CD000DFF854164720884769E5707A01280DD12E
:103CE0005020FFF7CBFC5020FFF7C8FC042000F069
:103CF00003FC307801303070FFF7BEF8B07901284E
:103D00002FD1DFF83046012086F806B086F809B0DA
:103D1000A6F802B0208002E0FCF71AFD208880B2ED
:103D20009628F9D92046002404803461FEF748FE25
:103D30004FF4FA707480FCF7F7FEFEF727FEDFF809
:103D4000F8057472B471047002E0FCF701FD747A36
:103D50002006FAD0C820FCF7E7FE3078019C01303D
:103D60003070707A01287FF422ADDFF8C015DFF8DB
:103D700064070A78DFF8B81500780B78432193427E
:103D800008BF012806D093424FF0440108BF022823
:103D900040F02F82DFF88C053570017007E5707AEE
:103DA00001287FF404AD06203070DFF87805007834
:103DB000472800F05A8245287FF4F9AC002055E2EC
:103DC000B07901287FF4F3ACDFF868450720307044
:103DD000012086F809B0A6F802B0208002E0FCF7C6
:103DE000B7FC208880B26E28F9D9204600240480D0
:103DF000FEF7E6FD4FF4FA707480FCF795FEFEF7CF
:103E0000C5FDDFF834057472B4717480047002E08B
:103E1000FCF79EFC747A2006FAD0C820FCF784FEDA
:103E2000019CC4E4707A01287FF4C1ACDFF8F4048B
:103E30000078472800F0268245287FF4B8ACDFF8E8
:103E4000EC14DFF8EC24DFF88C060978127800789F
:103E50008A4208BF012840F0368235700EE7707A3A
:103E600001287FF4A4ACDFF8BC04007843380528AF
:103E70003FF69DACDFE810F00E00200206001802AD
:103E800006001802FEF782FD40F60F707080642075
:103E9000FCF74AFE002010E2B079012808BFC6F8FE
:103EA00010B0FFF784BC204610210122FCF741FF2F
:103EB000B07901287FF47BACC6F810B0FEF780FD26
:103EC000A6F802B0FFF773BC204610210122FCF7D0
:103ED00030FF707A01287FF46AAC062000F00CFBFA
:103EE000FEF76EFDA6F802B05120FFF7C7FBFFF703
:103EF0005EBCDFF8341446208847DFF82C144620D7
:103F00008847DFF8241446208847DFF81C14462031
:103F10008847022000F0F0FAA6F802B04FF4C8700B
:103F20008AE6B07901287FF442AC0020B07170724B
:103F300002E0FCF70DFC707A0006FAD07BE6B0795F
:103F400001287FF434AC0020B071707202E0FCF7FD
:103F5000FFFB707A0006FAD00CE0B07901287FF4FC
:103F600026AC0020B071707202E0FCF7F1FB707AB1
:103F70000006FAD0C820FCF7D7FD062000F0BCFAF6
:103F80005CE6707A01287FF412AC012000F0B4FAEC
:103F9000C820FCF7C9FD0120B0715AE0707A0128F1
:103FA0007FF405AC0020707202E0FCF7D1FB707A60
:103FB0000006FAD03FE6B07901287FF4F8AB512033
:103FC000FFF75CFBC82086F806B086F809B0FCF75E
:103FD000ABFD01E0FCF7BCFB707A0028FAD02AE6C2
:103FE000B07901287FF4E3AB0020707202E0FCF7A7
:103FF000AFFB707A0006FAD01DE6B07901287FF495
:10400000D6AB5120FFF73AFB0020707202E0FCF7BC
:104010009FFB707A0006FAD0DBE0B07901287FF4CC
:10402000C6ABC82086F806B086F809B0FCF77CFD60
:1040300001E0FCF78DFB707A0028FAD0FBE5707A7E
:1040400001287FF4B4AB002000F056FAC820FCF73A
:104050006BFD7078013070705120FFF70FFB43E764
:10406000707A01287FF4A3AB0020707202E0FCF7A5
:104070006FFB707A0006FAD0DDE5B07901287FF495
:1040800096AB0020B071707202E0FCF761FB707AB1
:104090000006FAD0CFE5B07901287FF488AB002084
:1040A000B071707202E0FCF753FB707A0006FAD030
:1040B00051E0B07901287FF47AAB0020B0717072C2
:1040C00002E0FCF745FB707A0006FAD0B3E5B07960
:1040D00001287FF46CAB0020B071707202E0FCF735
:1040E00037FB707A0006FAD035E08F4942208847C6
:1040F0008D49422088478C49422088478A4942207E
:104100008847B07901287FF452AB0020B0717072FB
:10411000708002E0FCF71CFB707A0006FAD08AE59A
:10412000B07901287FF443AB0020B071707202E0D7
:10413000FCF70EFB707A0006FAD07CE5B079012816
:104140007FF435AB0020B071707202E0FCF700FB29
:10415000707A0006FAD0C820FCF7E6FC042000F0D4
:10416000CBF90120707266E5B07901287FF41FABAE
:104170006D49422088476C49422088476A4942205D
:1041800088476949422088470020B071707202E078
:10419000FCF7DEFA707A0006FAD04CE5B079012817
:1041A0007FF405AB0020B071707202E0FCF7D0FA2A
:1041B000707A0006FAD03EE5B07901287FF4F7AABC
:1041C0000020B071707202E0FCF7C2FA707A00064B
:1041D000FAD0C820FCF7A8FC042000F08DF9C82014
:1041E000FCF7A2FC70780130707001207072FFF74C
:1041F000DEBA00287FF4DBAA042000F07DF94D4CE4
:1042000001202080C820FCF78FFCA6F802B001E056
:10421000FCF79EFA20889628FAD9204600240480CC
:10422000FEF7CEFB4FF4FA707480FCF77DFCFEF7CE
:10423000ADFB41487472B4717480047002E0FCF705
:1042400087FA747A2006FAD0C820FCF76DFC307823
:10425000019C01303070FFF7AABA8A4208BF0228D9
:104260007FF4A5AA0520307017E0012000F044F982
:10427000C820FCF759FC974880F800B0FEF7FCFD19
:10428000FFF795BA29492A4A9248097812780078A6
:104290008A4208BF01281ED135702248472101708B
:1042A000FEF7EAFDFFF783BAFEF770FB40F60F70EA
:1042B00070806420FCF738FC012000F01DF9C82054
:1042C000FCF732FCA3E48A4208BF02280BD1154850
:1042D00035704621E3E78A4208BF022803D111481E
:1042E00035704821DBE7C6F810B0FFF760BA00BFB1
:1042F000C8010020CD1B0008A00200200001002002
:104300002B0000207D21000860010020C601002054
:10431000380000202C000020330D0008E12B00089D
:1043200025000020260000207D3600082700002000
:104330002800002090000020C0000020B7EE001AE6
:10434000F4EE410AF1EE10FA18BF70471B491A4803
:104350009FED1C3A9FED1C4AB7EE086A9FED1B5A71
:1043600091ED031A90ED002A30EE410A9FED141AE8
:1043700030EE022A22EE011A00EE031A00EE061AAF
:10438000B5EEC01AF1EE10FAB8BFB0EE441AB4EEB2
:10439000C51AF1EE10FAC8BFB0EE451ABDEEC10A5B
:1043A00080ED002A10EE100AB0F57A7F28BF4FF496
:1043B0007A7007490860704730030020940000209D
:1043C00066660640CDCC8C400000000000007A44B8
:1043D00040080040B7EE001AF4EE410AF1EE10FA80
:1043E00018BF70471B491A489FED1C3A9FED1C4AA5
:1043F000B7EE086A9FED1B5A91ED081A90ED002A5E
:1044000030EE410A9FED141A30EE022A22EE011A14
:1044100000EE031A00EE061AB5EEC01AF1EE10FA1D
:10442000B8BFB0EE441AB4EEC51AF1EE10FAC8BF28
:10443000B0EE451ABDEEC10A80ED002A10EE100A5A
:10444000B0F57A7F28BF4FF47A700749086070474B
:104450003403002094000020666606409A99894043
:104460000000000000007A443C0800401CB517A280
:1044700000200121FEF744FC1648012103230278A5
:10448000042000901E20FEF7F3FB134C207828B97F
:1044900012A200200621FEF733FC2078012804D167
:1044A0000EA200200621FEF72BFC0E480078022801
:1044B00004D0012818BF1CBD0DA200E00AA23220C2
:1044C000072102B0BDE81040FEF71ABC4C6F523D08
:1044D00000000000210000202A00002068617665AD
:1044E0003D000000070000206261636B00000000D7
:1044F000676F20200000000070B5364C00210125B8
:1045000006286172A572A17162D8DFE800F004127A
:104510002632474F5800FEF739FA40F60F70608098
:104520004FF47A70FCF700FBFEF730FAFEF762FA00
:104530000CE0FEF72BFA40F60F7060804FF47A70B3
:10454000FCF7F2FAFEF722FAFEF76EFA40F22A3092
:10455000FCF7EAFA002060803AE0FEF717FA1E4EF8
:1045600040F60F7060804FF49670B047FEF742FA45
:104570000AE0FEF70BFA184E40F60F7060804FF419
:104580009670B047FEF750FA4FF4C860B047FEF798
:10459000FDF9002060806420B04719E0FEF7F6F9CD
:1045A00040F60F7060804FF4FA700FE0FEF7EEF9FE
:1045B000C820FCF7B9FA00206080207208E0FEF7FE
:1045C000E5F940F60F7060804FF41670FCF7ACFA16
:1045D000A57170BD00000020290B00080FB4084B26
:1045E00010B504A902AA039800F0DEF8044602A957
:1045F000002000F070FC204610BC5DF814FB0000A9
:10460000D74E000802E008C8121F08C1002AFAD1DC
:1046100070477047002001E001C1121F002AFBD142
:10462000704700002DE9FF5F82B00021DDE9043012
:10463000020DDDF840B0034318D044F61050A2F24A
:10464000FF3242431514119801281FD0A5EB0B002F
:10465000401C5FEA000A4FF000064E4FDFF8389129
:10466000B046504615D5CAF1000413E01198012454
:104670004AA3012801D16FEA0B010298119AC0E9FF
:104680000031C0E9024206B0BDE8F09FCBF1000066
:10469000DFE704460021404A491842EB0450CDE9C7
:1046A000001012E0E00707D032463B46404649463C
:1046B000FBF776FE8046894632463B461046194651
:1046C000FBF76EFE06460F466410002CEAD1DDE9CA
:1046D0000401DDE90023BAF1000F06DAFBF760FE02
:1046E00042464B46FBF75CFE05E0FBF7CBFE42463D
:1046F0004B46FBF7C7FE04460E460022284BFBF74D
:10470000EDFF03D84FF0FF30014607E00022254BB4
:1047100020463146FBF79DFDFBF7C7FF102409E05B
:10472000002C0ADB0A220023FBF750FD039B3032EA
:104730001A55641E50EA0102F2D1641C039AC4F1B6
:1047400011031444119A012A03D0012208430DD108
:104750000AE0084304D000204FF0110B119072E7DB
:10476000A3EB0B056D1E0DE05B4504DD4FF0000271
:1047700005F1010504E003DA4FF00002A5F101059F
:10478000002AECD002981199C0E90231C0E9004535
:1047900079E70000000014400000F03F3000000006
:1047A0000000F0430000E03F2DE9FF4F95B09B462D
:1047B0008946064600250FE2252877D100242746A2
:1047C000F84A0121059400E0044316F8013F203B1C
:1047D00001FA03F01042F7D130782A2811D06FF097
:1047E0002F033078A0F13002092A16D8059A44F038
:1047F000020402EB820203EB42021044761C059095
:10480000EFE759F8042B0592002A03DA504244F4EA
:104810000054059044F00204761C30782E2816D1FE
:1048200016F8010F44F004042A280DD06FF02F026F
:104830003078A0F13003092B09D807EB870302EB8E
:104840004303C718761CF3E759F8047B761C3078CD
:104850006C280FD006DC4C2817D068280DD06A28A9
:1048600014D104E0742810D07A280FD10DE044F45C
:1048700000140AE044F4801401E044F44014727817
:10488000824202D104F58014761C761C30786628AA
:104890000BD013DC582877D009DC002875D04528C8
:1048A000F6D04628F4D047281AD19DE118E06328B5
:1048B00035D0642879D0652812D195E1702873D05D
:1048C00008DC6728F1D069286FD06E280DD06F28DA
:1048D00006D1B5E073282CD0752875D0782874D00F
:1048E0005A46179990476D1C75E1C4F3025002288F
:1048F00009D003280DD0D9F8001004280DD00D6080
:1049000009F1040967E1D9F80010EA17C1E900527A
:10491000F6E7D9F800100D80F2E70D70F0E719F80E
:10492000041B8DF8001000208DF80100EA460120DC
:1049300003E059F804AB4FF0FF3061074FF000017E
:1049400002D40DE008F101018846B9420FDA804532
:10495000F8DB1AF808100029F4D108E008F1010189
:1049600088468142FADB1AF808100029F6D105982A
:104970005B46A0EB080721463846179A00F094FAE8
:10498000284400EB080507E04DE029E10DE01AF8A6
:10499000010B5A4617999047B8F10108F7D25B46C8
:1049A00021463846179A13E142E00A220092C4F3E6
:1049B00002524FF0000A022A08D059F804CB032A09
:1049C0004FEAEC710AD00DE029E02AE009F1070175
:1049D00021F00702F2E802C1914609E00FFA8CFCCF
:1049E0004FEAEC71042A03D14FFA8CFC4FEAEC71C8
:1049F000002907DA0A460021DCF1000C61EB020114
:104A00002D2202E0220504D52B228DF8042001225C
:104A100003E0E20701D02022F7E7904659E00A219F
:104A200002E010220DE010214FF0000A00910BE08F
:104A300010224FF0000A44F004040827009203E01B
:104A400008224FF0000A0092C4F30252022A05D055
:104A500059F804CB0021032A08D009E009F1070125
:104A600021F00702F2E802C1914605E01FFA8CFC32
:104A7000042A01D10CF0FF0C4FF00008220728D5C2
:104A8000702806D0009B83F0100353EA0A0305D078
:104A90000EE040228DF80420012208E05CEA0102C9
:104AA00006D030228DF804208DF8050002229046B1
:104AB000009B83F0080353EA0A030AD15CEA01026F
:104AC00001D1620705D530228DF804204FF001088E
:104AD0007F1E582804D034A003900EA802900DE049
:104AE00036A0F9E753466046009AFBF76FFB844611
:104AF0000398825C0298401E029002705CEA0100FA
:104B0000F0D1029806A9081A00F1200A600702D520
:104B100024F4803400E00127574502DDA7EB0A00AA
:104B200000E0002000EB0A01009005984144401A83
:104B30000590E00306D45B462146179A059800F0DD
:104B4000B3F90544002706E001A85A46C05D17994D
:104B500090476D1C7F1C4745F6DBE0030CD55B4698
:104B60002146179A059800F09FF9054404E030208B
:104B70005A46179990476D1C0099481E00900029CD
:104B8000F5DC08E0029802995A460078491C029127
:104B9000179990476D1CBAF10001AAF1010AF1DCE6
:104BA00065E10000092801003031323334353637F1
:104BB0003839616263646566000000003031323369
:104BC0003435363738394142434445460000000009
:104BD00000F058F90544761C307800287FF4ECADDD
:104BE00019B02846BDE8F08F620700D4062709F106
:104BF000070222F0070CFCE80223E14603F000481C
:104C00005FEA080C02D00FF2702C0DE05FEA045C42
:104C100002D50FF2682C07E05FEAC47C02D00FF2E5
:104C2000602C01E0AFF2700C4FF0FF3823F000432E
:104C3000CDF850C065280CD006DC452809D04628A0
:104C40001DD047283DD13DE0662818D067287ED189
:104C500038E00021112F01DB112000E0781CCDE9A4
:104C6000000106A90EA8FFF7DDFCDDE90F010E9A91
:104C700003910021009207F1010A04914DE04FF0E9
:104C800000400097CDE9011006A90EA8FFF7CAFC65
:104C9000DDE90F0203920E9B11990022DDF80CA0B2
:104CA0000093049211B9791C00EB010AB7EB0A00DA
:104CB00004D4C0F1FF3007F1010A0490AAEB070009
:104CC000019044E0012F00DA01270021112F01DDBE
:104CD000112000E03846CDE9000106A90EA8FFF733
:104CE000A1FCDDE90F010E9A0391002104910092CD
:104CF000BA4621070CD40399514500DA8A46BAF125
:104D0000010F05DD009AAAF10101515C302908D09C
:104D1000B84202DA10F1040F06DA0121CDE90110E0
:104D200015E0AAF10101E9E7002805DC0499014436
:104D30000491AAEB000102E0411C514500DD8A46C6
:104D40000499401A401C01904FF000400290200747
:104D500004D40198504501DBCDF8048000208DF883
:104D60004F0002980DF14F07B0F1004F25D02B20D6
:104D70000E9002984FF0020800280CDA4042029090
:104D80002D200E9007E00A210298FBF7EAFB303154
:104D9000029007F8011DB8F10001A8F10108F2DC4A
:104DA00002980028EFD1791E0E980870307800F034
:104DB000200040F0450007F8020D12A8C01B00F1CA
:104DC00007081498007800B1012000EB0A0101984F
:104DD00001EBE07105984144401A401E0590E00344
:104DE00006D45B462146179A059800F05DF8054405
:104DF0001498007818B15A46179990476D1CE00333
:104E000024D55B462146179A059800F04DF80544D5
:104E10001CE00498002807DBDDE90301884203DD7C
:104E20000098405C179901E0179930205A46904746
:104E3000049805F10105401C04900198401E019062
:104E400004D12E205A46179990476D1CBAF10001E3
:104E5000AAF1010ADDDC05E017F8010B5A461799A3
:104E600090476D1CB8F10001A8F10108F4DC5B4625
:104E70002146179A0598ABE62D0000002B00000094
:104E8000200000002DE9F041044600251E4617468B
:104E9000880404D405E039462020B0476D1C641E08
:104EA000F9D52846BDE8F0812DE9F04104460025FA
:104EB0001E469046C80301D5302700E0202788040D
:104EC00004D505E041463846B0476D1C641EF9D54F
:104ED0002846BDE8F0810A68531C0B6010707047CB
:104EE000000000000000000001020304060708099A
:104EF00000000000010203040000000000000000A8
:104F0000002F000000000700070000147F147F142A
:104F100000242A7F2A1200626408132300364955B0
:104F2000225000000503000000001C224100000088
:104F300041221C000014083E08140008083E08081E
:104F4000000000A060000008080808080000606079
:104F50000000002010080402003E5149453E0000B8
:104F6000427F4000004261514946002141454B319A
:104F7000001814127F10002745454539003C4A4966
:104F800049300001710905030036494949360006D8
:104F90004949291E00003636000000005636000040
:104FA00000081422410000141414141400004122BB
:104FB000140800020151090600324959513E007C93
:104FC0001211127C007F49494936003E414141227D
:104FD000007F4141221C007F49494941007F090966
:104FE0000901003E4149497A007F0808087F000016
:104FF000417F4100002040413F01007F08142241D1
:10500000007F40404040007F020C027F007F040888
:10501000107F003E4141413E007F09090906003EE4
:105020004151215E007F091929460046494949310D
:105030000001017F0101003F4040403F001F204030
:10504000201F003F4038403F0063140814630007EE
:105050000870080700615149454300007F41410045
:1050600000552A552A55000041417F0000040201E5
:1050700002040040404040400000010204000020C3
:1050800054545478007F4844443800384444442001
:1050900000384444487F00385454541800087E09AE
:1050A00001020018A4A4A47C007F08040478000076
:1050B000447D4000004080847D00007F1028440033
:1050C0000000417F4000007C04180478007C080444
:1050D000047800384444443800FC24242418001880
:1050E000242418FC007C080404080048545454206C
:1050F00000043F444020003C4040207C001C2040F5
:10510000201C003C4030403C004428102844001C37
:10511000A0A0A07C004464544C441414141414142F
:10512000000000000000000000000000000000007F
:10513000000000F800000000000000333000000014
:1051400000100C06100C060000000000000000001B
:1051500040C07840C0784000043F04043F0404008D
:10516000007088FC08300000001820FF211E00009D
:10517000F008F000E018000000211C031E211E00B2
:1051800000F00888700000001E2123241927211038
:1051900010160E00000000000000000000000000DB
:1051A000000000E018040200000000071820400082
:1051B00000020418E0000000004020180700000072
:1051C000404080F0804040000202010F01020200D6
:1051D000000000F0000000000101011F01010100BA
:1051E000000000000000000080B07000000000001F
:1051F00000000000000000000001010101010101A8
:10520000000000000000000000303000000000003E
:105210000000000080601804006018060100000013
:1052200000E010080810E000000F102020100F0010
:10523000001010F8000000000020203F2020000097
:1052400000700808088870000030282422213000EF
:1052500000300888884830000018202020110E00F7
:105260000000C02010F8000000070424243F2400A0
:1052700000F80888880808000019212020110E0075
:1052800000E0108888180000000F112020110E0087
:1052900000380808C83808000000003F000000007F
:1052A0000070880808887000001C222121221C0040
:1052B00000E010080810E0000000312222110F0069
:1052C000000000C0C00000000000003030000000FE
:1052D000000000800000000000008060000000006E
:1052E0000000804020100800000102040810200087
:1052F00040404040404040000404040404040400D2
:105300000008102040800000002010080402010066
:10531000007048080808F000000000303601000066
:10532000C030C828E810E0000718272423140B0019
:105330000000C038E0000000203C23020227382093
:1053400008F8888888700000203F202020110E0077
:10535000C03008080808380007182020201008006E
:1053600008F808080810E000203F202020100F0057
:1053700008F88888E8081000203F20202320180023
:1053800008F88888E8081000203F2000030000008B
:10539000C03008080838000007182020221E02002C
:1053A00008F808000008F808203F210101213F20EB
:1053B000000808F8080800000020203F2020000016
:1053C00000000808F8080800C08080807F00000006
:1053D00008F888C028180800203F2001263820003F
:1053E00008F8080000000000203F202020203000A6
:1053F00008F8F800F8F80800203F003F003F2000C0
:1054000008F830C00008F808203F200007183F00C7
:10541000E01008080810E0000F10202020100F00F6
:1054200008F808080808F000203F210101010000E9
:10543000E01008080810E0000F18242438504F002E
:1054400008F8888888887000203F2000030C3020EE
:1054500000708808080838000038202121221C002C
:10546000180808F8080818000000203F2000000075
:1054700008F808000008F808001F202020201F005E
:105480000878880000C83808000007380E010000BE
:10549000F80800F80008F800033C0700073C030088
:1054A000081868808068180820302C03032C3020EE
:1054B0000838C800C83808000000203F200000005D
:1054C00010080808C83808002038262120201800B5
:1054D000000000FE020202000000007F4040400089
:1054E000000C30C000000000000000010638C000C1
:1054F00000020202FE000000004040407F00000069
:10550000000004020202040000000000000000008D
:10551000000000000000000080808080808080808B
:105520000002020400000000000000000000000073
:1055300000008080808000000019242222223F2069
:1055400008F8008080000000003F112020110E00AC
:105550000000008080800000000E1120202011003B
:10556000000000808088F800000E112020103F20ED
:105570000000808080800000001F22222222130071
:10558000008080F0888888180020203F20200000BC
:105590000000808080808000006B94949493600071
:1055A00008F8008080800000203F210000203F207C
:1055B00000809898000000000020203F202000007C
:1055C000000000809898000000C08080807F00006C
:1055D00008F8000080808000203F24022D30200049
:1055E000000808F8000000000020203F20200000F4
:1055F0008080808080808000203F20003F20003F0E
:105600008080008080800000203F210000203F201B
:105610000000808080800000001F202020201F00CC
:10562000808000808000000080FFA12020110E00FB
:105630000000008080808000000E112020A0FF80EC
:10564000808080008080800020203F212000010099
:1056500000008080808080000033242424241900EE
:10566000008080E0808000000000001F20200000FB
:105670008080000000808000001F202020103F203C
:10568000808080000080808000010E3008060100CC
:1056900080800080008080800F300C030C300F0071
:1056A00000808000808080000020312E0E3120009C
:1056B000808080000080808080818E7018060100CC
:1056C00000808080808080000021302C22213000EA
:1056D00000000000807C020200000000003F40400B
:1056E00000000000FF00000000000000FF000000BC
:1056F0000002027C800000000040403F00000000EB
:105700000006010102020404000000000000000085
:105710003057000800000020000100000446000887
:105720003058000800010020380600001446000828
:105730000000000000010000000000000000000068
:105740000000000000000000000000000000000059
:105750000000000000013000000000000000000018
:105760000000000000000000000000000000000039
:105770000000000000000000000000000000000029
:105780000000000000000000000000000000000019
:105790000000000000000000000000000000000009
:1057A00000000000000000000000000000000000F9
:1057B00001000000100000000000000000000000D8
:1057C0000000000000100000000000000AD7233C89
:1057D00000000000000000000020000000000000A9
:1057E0000AD7233C00000000000000000000000079
:1057F00000000000000000000000000000000000A9
:10580000000000000000A0C0000040C0000000C078
:10581000000080BF0000803F0000004000004040CA
:105820000000A0400024F400000000000000000080
:040000050800019559
:00000001FF
